:020000040000fa
:080000000002040000000000f2
:020000040000fa
:100400008fc720000efb27000e01880000000000af
:100410000c00070060b52400010020001100070057
:10042000000020000000e000020032000000020096
:10043000000000005a690200000000000040da00dd
:100440000000fe004440a900e01e20000000e00083
:100450000300320000002000a00188004440a800f2
:100460000000060091018800800078000000eb0089
:1004700015003700e280400032a0b4009101ba00bc
:10048000e280400032a0b4009102ba00e280400055
:1004900032a0b4000002eb00472bde00f507b200eb
:1004a000602ce10004003a000059eb008301e900f0
:1004b000fdff3e00040037006128e100010032002a
:1004c0000082eb00040007001101ba000200e00006
:1004d000e8ff3a00000006003159ba008301e90044
:1004e0000c0032002159ba008301e90008003200f3
:1004f0000400e00003003a00e280400032a0b400b3
:10050000f5ff370011d9ba008301e900faff3a007c
:100510008100e800e180400032a0b4000000060045
:100520005844040000000000604404000000000083
:10053000a0440400000000000c450400000000007e
:10054000544504000000000098450400000000002d
:10055000e445040000000000b85c04000000000056
:10056000245d040000000000cc5c040000000000da
:10057000905c040000000000705d040000000000ba
:1005800020600400000000003c6004000000000047
:100590000e600400000000004c6004000000000039
:1005a00062600400000000008c6004000000000095
:1005b000c460040000000000ea60040000000000c5
:1005c000683b0400000000006839040000000000df
:1005d00030390400000000003c3904000000000035
:1005e0005c390400000000007c39040000000000b9
:1005f0008a3904000000000098390400000000005f
:10060000a439040000000000b2390400000000001a
:10061000e0390400000000000c3a04000000000073
:10062000d439040000000000183a04000000000063
:100630001c03040000000000889fbe000004780036
:1006400090049000828f54000100390082047800e9
:10065000180078000901780020000700188c440079
:10066000180090000900500010049800080078005d
:100670004f04be00000006000400fa000100e00084
:1006800005003a00648057000080e800e0bf9f004a
:10069000f1bf9f0003003700e0bf9f000100e900a9
:1006a000f0bf9f00e4805700c03120001200070017
:1006b000efb897008048eb000080fa0000000600c9
:1006c00080007800010037000000e8001004e0001e
:1006d000fdff3a0001005000000006008001eb0021
:1006e0000200370061f079008301e800828f510039
:1006f000fcff3a00000006006200fa00889fbe007e
:100700008a9fbe000004be000205780083007800c6
:1007100060f92f000f004000b000070088979f008d
:1007200099979f000000eb00a09f9f009a457800da
:100730000b80fb000000ea00cf04de0050c2b300d3
:1007400080cf550002003200090478000100370014
:100750000904e9000800e0000b0034001f90970036
:10076000080178008a0078008f919700030001004b
:1007700090979f000000e000930032002f989700b0
:1007800000004400a09f9f000905450050c2b3002f
:1007900080cf5500040032000b04e000e3ff3a0074
:1007a0002f989700890037000000eb00809f9f0082
:1007b000f0979f00e0979f00d0979f00c0979f0001
:1007c000b0979f00c09f9f000900370020c72000fe
:1007d000008050000000400061c62000e100780069
:1007e0004f98970001007000c09f9f000a05e80025
:1007f0001a4478008800fb0020c720007c00070016
:10080000800078000000e000f0ff3a00a0c2b300d2
:10081000804f54000e003a00bf8897000180e90025
:10082000b08f9f0010007800b09f9f000000e00094
:1008300005003d000000ea00b09f9f004f98970020
:100840000020a000c09f9f000a05e80010003700ac
:10085000b19f9f0003fd2f00f4ff27000800370021
:100860003f989700840f5000040032006a00b900de
:100870000000410003004000b09f9f000a05e8000f
:100880001a01fb0003004100e90f5000f4ff36009d
:10089000e0c2b3009a4f1000040032000080eb0069
:1008a000909f9f008a0478001c0037008a04e800ab
:1008b000a0c2b300994f100007003a00bf8897000c
:1008c0000180e900b08f9f0010007800909f9f008a
:1008d0008a84e800110037000000eb00909f9f0021
:1008e00003fd2f00f4ff2700080037001f98970032
:1008f000840f5000040032006a00b900000041007b
:1009000003004000909f9f008904e8001901fb004c
:1009100003004100e90f5000f4ff3600194478004d
:100920008800fb0040fd2700310007000000e000c8
:1009300002003a0000447800010037008904e80012
:10094000a87f9f0080c6b300804f540004003a0087
:10095000994f14000a003a00664050000600370024
:10096000c0c6b300804f540005003a00994f1400f0
:1009700003003a0065404000a07f9f008904e80022
:100980000905e800c8fb2f000884470060f92f0024
:100990000f0040008085e800880178001941780048
:1009a000800078000b0078001a0007000000e000cb
:1009b00005003a00880078000b00780092010700db
:1009c0000000e00059ff3d000080eb004f05be0035
:1009d0004f04be000080fa00000006000200fa008a
:1009e000f1bf9f00010878000080fa0000000600b7
:1009f000040037000204e00001003a000000050096
:100a00000000e80010417800814f5100f9ff3a00e2
:100a100000000600889fbe008a1f7800000478004e
:100a200001027800824478000305780070c6b300a4
:100a3000804f510021003c0000c0e900804f510070
:100a4000de003d0072405000804f51004b013200eb
:100a50000d003c006c405000804f51005e013c0096
:100a600000c0e900804f5100d4003d0050c2b300e7
:100a7000804f5100550132007c404000804f5100b2
:100a800055013a00cd00370010c6b300804f510029
:100a9000ca00320004003c0069405000804f510001
:100aa0004d013a007200370030c6b300804f51004c
:100ab000180032000040e8000900370000c7b3000a
:100ac000804f51001e01320008003c0000c0e900c8
:100ad000804f5100e400320065003c00654050004a
:100ae00080cf54003c013a000f00370050c7b300dc
:100af000804f51005e00320063404000804f510043
:100b00005b00320065405000804f510032013a00d6
:100b10001a0137009180e900010a780078009000fe
:100b20009171780032013700a8609000c0c6b30010
:100b300080cf50000a003a00940078006480500092
:100b4000000a78001000be004f89de00cf91de0061
:100b50000002be0002037800820378001300370011
:100b600010c7b30080cf500003003200a0c6b3000e
:100b700080cf500006003a00940078006880500052
:100b8000000a78003002be002003be0007003700d4
:100b90001480e900000a7800100078000002780054
:100ba000cfa2de000503780086037800049cbe0017
:100bb0000694be00a860900080c6b30080cf5000ad
:100bc0000e00320020c6b30080cf500005003a006e
:100bd0000400fb00cf80de00010178008201780074
:100be0000a00370040c7b30080cf50000300320036
:100bf0006640400080cf500006003a0004007800b4
:100c0000cf80de000101780082017800009cbe00e8
:100c10000294be003800be002801be00e00f500064
:100c2000e08f5800e00f5900e08f590003003d00ad
:100c300078009000d1c2b3000a003700081090007d
:100c40000018a3000300320078009000b1c2b30086
:100c5000040037000008a300530032007800900021
:100c600001c2b300017578000000e8004d003700b4
:100c7000a8609000c0c6b30080cf500006003a00c4
:100c80009400780064805000000a78001002be00d2
:100c90006033b8001300370010c7b30080cf500096
:100ca00003003200a0c6b30080cf500006003a0017
:100cb0009400780068805000000a78003002be007e
:100cc0002003be00070037001480e900000a780006
:100cd00010007800000278000500200006002000c7
:100ce00007002000049cbe000694be00a86090008f
:100cf00080c6b30080cf50000e00320020c6b30083
:100d000080cf500005003a000480fb000100200065
:100d100002002000030020000a00370040c7b30093
:100d200080cf5000030032006640400080cf50006a
:100d300006003a00040078000100200002002000b4
:100d400003002000009cbe000294be00081090002a
:100d50000038a300140032003800be002801be0095
:100d6000e00f5000e08f5800e00f5900e08f59006d
:100d70000d00320080c7b30080cf54000300320062
:100d800080c5b30080cf540007003a00780090007f
:100d900001c3b300017578008000e80009f5780010
:100da0000080e80070049800780090000000450082
:100db00060049800894078006d003700a8609000ba
:100dc000c0c4b30080cf500006003a009400780001
:100dd00068805000000a78005001be004000be004c
:100de000050037009400780064805000000a780005
:100df0001000be004b080700009cbe000294be001d
:100e0000380090000000e00003003d0078009000f2
:100e1000d1c2b3000a003700081090000018a300e8
:100e20000300320078009000b1c2b3000400370024
:100e30000008a300050032007800900001c2b30052
:100e4000017578000000e8007004980078009000b8
:100e50000000450060049800894078000800780090
:100e60003301070064003700a8609000c0c6b300db
:100e700080cf5000250032000a003c006440500042
:100e800080cf50002800320000c0e80080cf500022
:100e9000140032006840500080cf500022003a0019
:100ea0000a00370040c7b30080cf50001e00320058
:100eb0006640400080cf50001b0032006940500067
:100ec00080cf500018003a00060037001480e90077
:100ed000000a780010007800485c9000084878000c
:100ee000450037001480e900000a780010027800fd
:100ef00068089000cf80de00010178008201780050
:100f0000009abe000292be003b0037001480e90048
:100f1000000a78001001780068089000cf80de0099
:100f20000089be00340037001480e900000a780010
:100f300010007800680c9000080878002e00370038
:100f40001180e9008008780010007800cf80de0072
:100f50000101780082017800009cbe000294be006e
:100f600078009000000045006004980081c7b3003d
:100f700008007800110307001f0037001480e90003
:100f8000000a78001000780060049800580990006a
:100f90000200e00002003d00c9fd07000900370023
:100fa0008000eb008e040700800078000000e00065
:100fb00003003200680090000080500001003700fc
:100fc00058089000100c98000b0037007800900033
:100fd0000275780006003700780090008000450018
:100fe0000904e00001003a0059c2b30089487800c2
:100ff0000000e800700498000000eb004f05780046
:101000004f04be00000006000400fa00889fbe00e6
:101010008a9fbe008c1f78000004780001067800cb
:1010200070089000f80090000100500088089000bf
:10103000010050009808900001005000a80890009e
:1010400001005000b808900001005000c80890004e
:10105000810550000002220090bf9f000003230082
:10106000a0bf9f00081090000028a30018003a00bd
:101070000b00e000160034008b04780009057800ae
:10108000e28f5400020036002a00200002003700e0
:101090000900e0000b00340058009000c8019000e7
:1010a0000a017800ee805700030001005004980008
:1010b0000000e00096003200680890000000450043
:1010c000600c98008a8454004240a900ebff3c0069
:1010d000780190000200e0000b00340058009000fe
:1010e000c80190008c0078000300010050049800b3
:1010f0000000e0008600320068089000f8009000d0
:1011000001004000600c9800880c90000900e0008d
:101110001500340009057800e28f54000200360003
:101120002a002000020037000900e0000b00340014
:1011300058009000c80190000a017800ec80570028
:1011400003000100500498000000e000700032002d
:101150006808900000004500600c98008a845400e4
:101160004240a900ebff3c00180990000200e0009b
:101170000b003400e800900058009000c801900077
:1011800003000100500498000000e00060003200fd
:10119000680890009808900001004000600c9800da
:1011a000a80c90000900e000150034000905780043
:1011b000e28f5400020036002a00200002003700af
:1011c0000900e0000b00340058009000c8019000b6
:1011d0000a017800ec8057000300010050049800d9
:1011e0000000e0004a00320068089000000045005e
:1011f000600c98008a8454004240a900ebff3c0038
:10120000380990000200e0000d003400e800900072
:10121000180890008080400058009000c80190009d
:1012200003000100500498000000e0003800320084
:1012300068089000b808900001004000600c980019
:10124000c80c90000900e000150034000905780082
:10125000e28f5400020036002a002000020037000e
:101260000900e0000b00340058009000c801900015
:101270000a017800ec805700030001005004980038
:101280000000e000220032006808900000004500e5
:10129000600c98008a8454004240a900ebff3c0097
:1012a000081090000028a3001b0032000b00e00093
:1012b000190034008b04780009057800e28f54008f
:1012c000020036002a002000020037000900e0007a
:1012d0000b00340058009000c80190000a0178000b
:1012e000ee80570003000100500498000000e00069
:1012f000070032006808900000004500600c98006c
:101300008a8454004240a90003003400eaff3700f9
:101310000080eb00010037000000eb004f06780072
:101320004f05be004f04be000080fa00000006001a
:101330008f04b000889fbe008a9fbe008c9fbe00b5
:101340008e1f7800f0b79f0081f79f005001be000c
:101350004000be00f0979f00819f9f00929f9f00da
:10136000a39f9f0010c6b3000ff19700804f51005c
:101370001600320010c4b300804f51001300320039
:10138000ffb19700530890000000e00003003d000b
:1013900060002000d00998000c0037000000e00039
:1013a0000a003a0070c6b3000ff29700804f520057
:1013b0000300320070c4b300804f520003003a00b3
:1013c00010002000ffb29700d00a9800ffb09700ed
:1013d000c0fa2f000f0040008b0307008001780047
:1013e000e20f500012003a0030002000ffb09700da
:1013f0009008980010c6b3000ff19700804f51007d
:101400000700320064404000804f51000400320069
:1014100021c120000040e800804f510001003a0047
:1014200061c12000ffb197006300900013003700f6
:101430000000e00015003400300020007fb297006b
:10144000100a980010c6b3008ff2970080cf5200a8
:10145000070032006440400080cf52000400320098
:10146000a1c120000040e80080cf520001003a00f6
:10147000e1c120007fb197006200900031587800f0
:101480003158780011487800c601370014c6b300ff
:101490008ff2970084cf52000300320010c4b300d3
:1014a00080cf520013003a007fb097006001900097
:1014b0008200780000c3b30080587800ffb2970024
:1014c000e102980080c7b3008ff2970084cf5200ea
:1014d0000100320080c5b300804878000280e80037
:1014e000ffb09700e0009800710090000080e800d5
:1014f000f00098000300e00005003a00e3979f0029
:1015000064fb2f000481470003077800a001370027
:1015100025c22000e5b79f0010c6b3008ff09700ea
:1015200080cf50000500320010c4b30080cf5000bf
:10153000a7003a0032c32000e2b79f00ffb1970036
:10154000530890001e0220000000e000010035005a
:101550000007e8000e02e800d4b79f006022b80040
:101560006033b8007f9097008f9897001f9997007d
:10157000af9997008a060700ffb097003102be00be
:101580002103be000000e00004003d000400be0096
:101590000601be0003f0a200020037000400be00f6
:1015a0000601be00f0979f00819f9f00929f9f00c1
:1015b000a39f9f006f91970064015100e2979f00e5
:1015c000c3fa2f008f8141006a8041000048eb0080
:1015d0006b824100c4b79f0031003700c201200078
:1015e00003002000e5fa2f000580470032030700c2
:1015f0007f9497008f9c97001f9d9700af9d970049
:101600000800be000a01be006a0607000006be0010
:101610005fb1970067015100d2b79f004240a90017
:101620000a0034008f0607000002be000203be005d
:101630000800be000a01be008d060700f0979f005b
:10164000819f9f00929f9f00a39f9f00cfb1970013
:101650006780410071002000050037006f60660060
:101660004c6add004466de000c067200c4eede004b
:10167000e00f5600e08f5e00050034008100e900b5
:10168000e18f4000f5ff3a00010037000060eb00f9
:101690008100e900fdff3b0067004000c0b79f00ec
:1016a000dfb297000500e000090034006022b800b6
:1016b0006033b8007f9097008f9897001f9997002c
:1016c000af9997006c0607000000e000c3ff3c00e4
:1016d00060fb2f00808047004fb197000100510050
:1016e0000000e9008e0f500001003d000007780067
:1016f0000e00e00003003d0073fb2f000381470054
:101700002c003700800f570005003d000e80400080
:1017100010409000f3c0b300e74f500001003c00c0
:101720008041eb00c4fa2f000f0242000e0042007d
:101730006a0040008e007800010037000000e900d8
:101740008100e90010417800834f5100fbff320017
:101750000107e800efcf510001003a000248e8001d
:101760000100e0000300350075fb2f0005814700f4
:10177000060037000e07e8006f90970064004000f5
:10178000e0979f0061fb2f00018147008e00410020
:101790008e017800030037001100fb006fb2970044
:1017a000e44878008301e9008100e9000300e000db
:1017b000f9ff3d00ffb29700550890000000e000df
:1017c000f3003d000e00e900d00a9800f000370059
:1017d0007f9497008f9c97001f9d9700af9d970067
:1017e0006022b8006033b8000800be000a01be00e5
:1017f000eb0507000000e00005003d000bf0a20033
:10180000f8979f00899f9f009a9f9f00ab9f9f0022
:101810006f909700725927000280b900026a280071
:1018200013002000cd040700e4005000e1979f0062
:1018300015003b00e3801000c0ff2f000084600013
:101840000800ea00e0979f007f9097008f9897002c
:101850001f999700af999700a9bc20000700370097
:101860000808a300030032003902be002903be00ad
:10187000060607000884d100e88444000800e00060
:10188000f7ff3c001b0037000100e0001d003400a2
:10189000c0ff2f0000806000e0979f0000047800e8
:1018a0006000b8000200200003ff2300a9bc200054
:1018b000070037000808a300030032003902be0009
:1018c0002903be00f10507000884d100e884440024
:1018d0000800e000f7ff3c000002be000203be006b
:1018e0007f9097008f9897001f999700af99970066
:1018f0005b060700f0979f00819f9f00929f9f00cb
:10190000a39f9f00ffb097005109900060c6b300ed
:101910008ff1970080cf5100040032006100200059
:1019200060c4b30080cf510002003a006f9297006c
:10193000ea00420001074100f30f570001003400a4
:101940003e01200000c3b300e0779f0075fb2f002d
:1019500085824700b5b79f00330037000800be00fe
:101960000a01be00930507000006be006807570085
:101970004240a9000e003400ba0507000002be0074
:101980000203be000800be000a01be00b805070041
:101990006022b80046782d0077192400bb050700a7
:1019a000f0979f00819f9f00929f9f00a39f9f00a1
:1019b0003fb0970068044000890020000d00370008
:1019c000a4002000050020000c01be00e0fd2f0057
:1019d00000804700b30207007fa897008fb09700f0
:1019e0001fb19700afb1970004c3b3000464410076
:1019f0000006be00e00f5600e08f5e0006003400d7
:101a00008904e900e18f4400edff3a00020037004d
:101a100000c3b300006478008904e900fcff3b00c8
:101a200068044400b8b79f000e00e0000b003400cb
:101a30007f9497008f9c97001f9d9700af9d970004
:101a40006022b8006033b8000800be000a01be0082
:101a5000890507000000e000c0ff3c00c5fa2f0028
:101a60008f8242006a804200bfb097000080500021
:101a70008001e9006f919700e70041006b8142000f
:101a800000c3b300010037000201e800924f1000cc
:101a9000fdff320074fb2f0004804700808040006f
:101aa000828050000080410002025000e1979f00b8
:101ab000ffb29700d509900060c6b3008ff297007f
:101ac00080cf52000300320060c4b30080cf5200c8
:101ad00002003a008100e8000a00370050c6b30057
:101ae0008ff0970080cf5000050032008000eb009f
:101af00050c4b3008ff2970080cf520001003a002b
:101b000011002000018741008e0f520001003d00ae
:101b1000040778000e00e0001d003500840f570018
:101b200005003d00e2407f0095c3b30040c3b30011
:101b300080cf500001003c0005c3b3000e004100ff
:101b40008000e9008e017800010037008100e90083
:101b50008301e90011427800854f5200fbff3200fb
:101b60000307e80090c3b30080cf520001003a00a1
:101b70008448e8000300e00005003d000201e900a0
:101b80000e07e8006f9097000000e800e0979f00c4
:101b90006f9297008e0178008ff097007fb09700ca
:101ba0005d0207004f0778004f06be004f05be00dc
:101bb0004f04be008f04b100000006002f03b000e8
:101bc000889fbe008a9fbe008c9fbe008e1f78003b
:101bd0000007780050c52000c0b79f0080c5b30043
:101be00080cf50000800320042c42000c2b79f00de
:101bf0007740400080cf500003003a00830020006f
:101c0000b3b79f000a00370080c7b30080cf5000f1
:101c100005003200a4002000b4b79f0080c5b300c7
:101c200080cf500002003a0005012000b5b79f00a8
:101c30003e04be002e05be0040c6b30080cf50005b
:101c4000030032006540400080cf50000b003a0096
:101c5000e00f5400e08f5c00e00f5d00e08f5d005e
:101c600006003d006000b8006011b8000804500094
:101c7000898458000a0559008b855900bfb3970025
:101c8000e88f530003003200f08f530045003a0004
:101c90000200370036002000010037004600200017
:101ca000e00f5400e08f5c00e00f5d00e08f5d000e
:101cb00005003a005e08900081012000a1b79f0056
:101cc0000000e000080032003fb197000200e90088
:101cd00008006000cfb197006340780090df9f005c
:101ce00074012000a4b79f00860278008502e900f5
:101cf000050033008b05d1000a85d3008984d30009
:101d00000884d300f9ff3700089fbe000a97be0081
:101d1000afb397000700e90021fc2f008f8040003f
:101d2000008240003fb197008202e90012003700b4
:101d3000afb397008703e900a7b79f000080620058
:101d4000cfb09700615278003e00be002e01be0069
:101d5000860378008703e900050033008381d10002
:101d60000281d3008180d3000080d300f9ff3700c7
:101d7000009fbe000297be003e00be002e01be00c6
:101d8000e00f5000e08f5800e00f5900e08f59003d
:101d9000d6003400afb397000700e000e4ff3c003a
:101da000d2003700ae60900080c6b30080cf5000f4
:101db0000b00320006003c000104e0000800320085
:101dc0006640500080cf500073003a000400370096
:101dd000c0c6b30080cf50006f003a00310037001a
:101de000080178000800e00005003a005e08900055
:101df00081012000a1b79f000000e000090032002f
:101e0000bfb19700110009000381d8008000fd00d8
:101e10004fb297006440780090df9f00750120006a
:101e2000a5b79f00bfb39700110009000781d80034
:101e300080017800afb097000100e90022fc2f007c
:101e40000f014100000241000c003700bfb29700b3
:101e5000110009008501d80000017800afb3970098
:101e60008703e900a7b79f000590b90000805100e3
:101e7000cfb0970061527800820178000300e00043
:101e8000030034002fb197000200e000efff3c0098
:101e900003007800cf80de00010178008201780025
:101ea0003a0037000806be00e00f5400e08f5c00e7
:101eb00005003a005e08900083012000a3b79f0050
:101ec0000000e000090032003fb297006121b90034
:101ed0000c00be003c050700cfb2970065407800bb
:101ee00090df9f0077012000a7b79f003fb29700c7
:101ef0006121b9000c00be00a70307000006be0068
:101f0000afb297000500e90027fc2f008f83430044
:101f10008083430097b79f00110037003fb19700bf
:101f20006114b9000801be000c00be000b030700dd
:101f30000005be00afb197008301e900a3b79f0081
:101f40000801be00ff020700000056001fb2970004
:101f5000cfb297006552780094b79f000a06be0082
:101f6000e00f5600e08f5e0003003400afb397002f
:101f70000700e000e9ff3c004feade00cfa2de00f0
:101f80000c00be000401780084017800009fbe00b0
:101f90000297be0055003700e00f5400e08f5c0050
:101fa000e00f5d00e08f5d0005003a005e089000e4
:101fb00081012000a1b79f000000e0000d00320069
:101fc0003fb1970002027800cfa2de00050378003f
:101fd000860378000800be000a01be007e050700e7
:101fe0004fb297006440780090df9f007501200099
:101ff000a5b79f003fb1970002027800cfa2de0094
:1020000005037800860378000800be000a01be00c0
:102010006a050700009fbe000297be00afb197009f
:102020000300e90024fc2f000f02420000064200da
:1020300020003700bfb2970005047800cfc4de004f
:10204000090578008a0578000802be000a03be0070
:102050005fa89700efa897007fa997008fb197001e
:1020600061050700d0b79f00e1b79f00f2b79f005e
:1020700083bf9f00afb397008703e900a7b79f0016
:102080000802be000a03be00dd0507005faa970034
:1020900000005200cfb29700655678005fb09700fd
:1020a000efb097007fb197008fb99700009fbe00f7
:1020b0000297be003e00be002e01be00d0af9f00c2
:1020c000e1af9f00f2af9f0083b79f00e00f500089
:1020d000e08f5800e00f5900e08f590003003400f2
:1020e000afb097000100e000d2ff3c003fb1970085
:1020f000e80f510013003a000e1090000038a300c2
:1021000010003200afb19700f78f510006003e007b
:1021100024fc2f000f0242008300420000c3b300e2
:10212000914f100007003200afb297008502e9001e
:10213000a5b79f0000c3b30027fc2f008f83430087
:1021400080f37a00afb1970078811100120f9800e8
:102150006e00900024fc2f000f024200830042001a
:102160005ef907001e0990005e089000800f510084
:1021700006003d0002005000000f98000e10900075
:102180000040a100001798000f0037000000e00099
:102190000d003d000e10900074006000f00f500024
:1021a00009003a007e089000fe00900001005000f7
:1021b0008e08900001005000020050004240a9002b
:1021c00001003400000f98004f0778004f06be0052
:1021d0004f05be004f04be002f03b10000000600f3
:1021e0008001eb00040037008301e80090cf10006d
:1021f000040032000000e800828f5100faff3a002c
:102200000000eb0000000600889fbe0080047800fc
:102210006684400000ff2700180060004401de00d3
:10222000f07f2000800f51000e003a00800ceb0080
:10223000180478006f0064001c003a002100900030
:102240000000e00019003a00110090000000e000da
:1022500016003a00100020001100e00014003200c7
:10226000120037000200e00005003c000100780089
:10227000dd010700000178000000e00008003c00dc
:10228000f00028001800600001fe2300010c70001f
:1022900020c02f00800c41000080eb0004003700bc
:1022a000800ceb000000eb00010037002000200054
:1022b0004f04be0000000600889fbe008a1f780001
:1022c0008c9fbe00000478000206be00e6044000b9
:1022d000190178000200d0004505de008a00780070
:1022e000f07f2000800f55000c003a006f00610065
:1022f00067003a00280090000000e00064003a0007
:10230000180090000000e00061003a00100020007a
:102310001800e0005f0032005d0037000a00e000b6
:1023200007003a0008007800af010700800078003d
:102330000000e000020034000a0078005500370079
:102340006108b9000c0140008d814800e07f200049
:10235000800f5100e08f59000d0034001900e0009b
:1023600004003d006000b8000200200003ff2f00c1
:10237000030037006000b8000200200003ff2700c0
:10238000009cbe000294be001000200041003700f7
:10239000e00f5100e08f590005003400f0002800e4
:1023a00019006000c410dd00810c70003600370099
:1023b0001900780001002800010360006f00600030
:1023c0000040a000800c780061015100e0815900bc
:1023d000c0fc2f00f1ff2f00800f5100818f5900aa
:1023e00006003d00860c78000000eb0020049800f9
:1023f00010049800000c78002600370002007800d6
:102400000881e800e400440005003700120c780061
:102410001109780099087800800ceb0070004000ea
:10242000f00f4000f9ff34008002ea00150032008e
:102430008881e80070821200980078008508de002c
:10244000130078000400dd00008c7000640144007b
:10245000930078008508de00120078000400dd009b
:1024600080897000920078008508de0019007800ed
:102470000400dd0000897000190078000500de000e
:10248000800c7800990c73000080eb00010037008d
:10249000200020004f06be004f0578004f04be000c
:1024a000000006000400fa00889fbe008a9fbe005c
:1024b0008c1f78000006780092bf9f00a3bf9f008a
:1024c0000404be000401be001fb89700afb8970017
:1024d000a20107000005be000001be000800be000a
:1024e000980107001fb99700afb99700000051008d
:1024f0008180590020069800310698000a8ebe009f
:102500000c0078004f0678004f05be004f04be0057
:102510000080fa00000006000e00fa00889fbe004e
:102520008a9fbe008c9fbe000004780001457800a1
:102530000206780083047800840678000300e00037
:1025400002003c0019002000ecfd270060c6b3002b
:10255000804f55000e00320060c4b300804f55001c
:102560000b00320070c6b300804f550003003200ec
:1025700070c4b300804f55009c003a00e48f4600c1
:102580008000350058089000808f56007d003d0087
:102590008d05e80060c6b300804f55001000320082
:1025a00060c4b300804f55000d0032000810900049
:1025b0000038a30004003a0058089000808f5400af
:1025c00001003d00590c9800580890000b00500085
:1025d000500c980002003b000000eb00500c9800eb
:1025e0000b00e00027003c001809900068009000f4
:1025f00001c3b300017079008201e800130c980058
:10260000580890000000e00003003c000810900013
:102610000038a3000500320068009000e1c2b3005a
:1026200001f079000280e800100c9800d8089000b2
:102630000b00ea00808f500001003d008105ea0098
:102640000b00ea00200c980001804500500c980017
:10265000890f500001003d0080047800390c98007b
:10266000680090009808900001004000090178007f
:102670008c00780019f807005808900009005000f5
:102680001a00370098089000680090008b8f540063
:1026900018003d0001004000090178008c0078001e
:1026a0000ef807001808900000814400120c9800f2
:1026b00009805500200c9800580890000000e000a8
:1026c00003003c00081090000038a3000600320010
:1026d000e8009000e0c2b3008070790038089000f4
:1026e0000000e800300c980058089000400c98005a
:1026f000a6003700010040000b0178008c00780034
:10270000f6f707001808900000814500120c9800a9
:102710008b845400580890000000e00003003c0047
:10272000081090000038a3000500320068009000f7
:10273000e1c2b300017079000200e800100c9800bb
:1027400058089000890f500001003d008004780077
:102750006800900098089000010040008b0046003f
:1027600009017800ddf70700180890000080440098
:10277000100c98005808900009005000200c980098
:102780008200370070c6b300804f5500030032004e
:1027900070c4b300804f550014003a0058089000f0
:1027a000808f540004003d00081090000038a30002
:1027b00001003a00590c9800580890000000e90008
:1027c000500c980002003b000000eb00500c9800f9
:1027d00070c6b300804f550002003a005ac6b300dd
:1027e0000b0037005ac4b3000900370010c6b3000d
:1027f000804f550002003a000ac7b30004003700ba
:1028000010c4b300804f550001003a000ac5b30060
:1028100018099000680090003c7079008201e8007f
:10282000130c98000c027800580890000000e0009b
:1028300003003c00081090000038a300170032008d
:10284000e8009000e0c2b30080f079008280e800e8
:10285000110c9800580890000000e0000f003400b0
:102860008904e900890f500001003d0080047800d0
:102870006800900000804000090178008400780022
:1028800096f707001808900000804400100c98008c
:102890005808900009005000200c98006800900033
:1028a00098089000010040000086e8000a5878006f
:1028b000800078000d00e00004003500b0c2b300d5
:1028c000804878008c04780004003700d0c2b30040
:1028d000804878008c0478008d06ea008005eb00c3
:1028e0000a003700a20020008d0078007080570099
:1028f000890007000fb897009fb897007a815500ac
:1029000001f17f008b05e800800678000d00e000f3
:10291000f4ff3c00e18f550009003c0050c6b300b5
:10292000804f55000300320050c4b300804f550063
:1029300003003a0000c3b300005e78008c04780006
:102940000b00e000040032000b00e900fa805700a1
:10295000008040000600370000c3b300805c7800b0
:10296000050037008b05e90002c3b300a05c4100fd
:102970000b00e000fbff3c0068009000980890000e
:102980000100400000805400300c980008109000b6
:1029900074006000f00f50000e003a0078009000c4
:1029a0009808900001004000a80890000100400035
:1029b000b808900001004000c80890008100400065
:1029c00078089000808f500002003d000100500008
:1029d000000c98004f06be004f05be004f04be001d
:1029e0000080fa000000060000017800e6014000c7
:1029f0001300780001002800810360006f00600070
:102a00008009780012003a00220090000000e000e7
:102a10000f003a00120090000000e0000c003a00a5
:102a2000160020001200e0003800320008003700d5
:102a3000e4004100910978000280e80090087800e5
:102a4000120878000009eb00700353000100370002
:102a5000160020001300e000f5ff3200e402410000
:102a60000282e80011003700800040001500780065
:102a70004f00de0080897000950078008180400062
:102a8000140078004f00de00808a70009400780007
:102a900081804000120078004f00de00008a700044
:102aa00012007800000940000603e90013007800d6
:102ab000ef0f5000ecff36008282e8006402410014
:102ac0000e0037009200d100150078004f00dd00a5
:102ad000008970009500d100140078004f00dd00df
:102ae000808a70009400d100130078004f00dd0050
:102af000008a70009309d1000603e80013007800f3
:102b0000ff0f5000efff3e00ef0960009389730054
:102b1000060078000000060002027800809fbe00d8
:102b2000110009008200d800000178004f00be00ab
:102b300002a2b900848050001100980002087800b9
:102b400000000600020ab900001bb9000200b8002c
:102b5000810042008100430000000600839f68005e
:102b60000100e00002003d0060001000e08018005d
:102b70000300e00002003d0060011100e081190047
:102b8000850007004f00e00002003b0060001000dd
:102b9000e080180000000600889fbe008a9fbe00eb
:102ba000010578000100e0000400350008003c0049
:102bb0000000e00020003200050037006000100037
:102bc000e080180002003b0001f02c001a003700e2
:102bd0000004be006011b8006b0920000982cf001c
:102be000020039000882cf000441b000694252005f
:102bf0000e00320008003b00828171006101640018
:102c00008904d1000884d3008b05e8000442e80061
:102c1000f9ff3a00050037000804440089844c009d
:102c20008b05e9000442e900fbff3a006a00070057
:102c30000af0a70001f0a0004f05be004f04be003f
:102c400000000600889fbe008a9fbe008c1f78008f
:102c5000870007008e00330003866c006450e1009b
:102c6000240032006420e100270032006150e100be
:102c7000220032006120e100210032008b854200f9
:102c8000eb07b1000134b800003ab8000804420074
:102c900089844a00013ab8000030b80088804000ba
:102ca00009014a0004003300000040008180480010
:102cb000020149008b05e900c909dd0083017000ac
:102cc0000100320013002000c814de004814dd00ab
:102cd0004709de001200b200c808de000884700058
:102ce0003d00070001f0a1000cf0a70001f0a000da
:102cf000700037006120e100720032000801be0060
:102d00000200be00f7ff37006150e100fcff3a000f
:102d10006c0037000001be006d0007000470a700c2
:102d200003f0a1006509b100160032000d00350066
:102d30006828e10006003500f0ff2f00f1ff2700b2
:102d40000300e00013003b00010028000000050024
:102d500000004000818048008502e900fcff3a0045
:102d600008003700f88f420002003c008000eb00b2
:102d7000000005008100d1000080d3008502e8003a
:102d8000fcff3a000300e00002003b00600010007e
:102d9000e0801800000006006022b8000602200053
:102da0000000d0008180d2000482d2008582d2004f
:102db0000000a0000202520083825a00030031008a
:102dc0000202420083824a000000a1000603e900db
:102dd000f3ff3a00000006008100200061805500ea
:102de0000b003d000b00200061fe2f000100e10000
:102df0001d00340082817100610164008904d100ea
:102e00000884d3000000e800faff3a0071002000b7
:102e100061006400030070000200600009003200dd
:102e200061044400e0844c000988a50005003200dc
:102e30008b05e8006808e10002003a008904d1002f
:102e40000884d300f20f20000258e10005003d0085
:102e5000c75ddd00f907b2008980750008007800c1
:102e6000000006000bf827008b007800000005002a
:102e70000004be00160007000003be000405be00eb
:102e80000200be0012000700844f7500000006001b
:102e90000200be006450e100050036006420e1003d
:102ea000020036000968a30001003a000800be00d5
:102eb0000160a0004f0678004f05be004f04be0021
:102ec00000000600f0ff2f00f1ff2700f9ff370098
:102ed000c70ade00f107b200f50fb20008003200a9
:102ee000e1cf4200020032000170a0002400050082
:102ef000810f700001003200040805004400050045
:102f0000810f700002003a00140005008502e900fc
:102f10000000400081c04800fcff3b000170a000a1
:102f20002400050081037800e9ff07000001be00ce
:102f30006000b8000478a30013003a006220e100aa
:102f400015003e000d0039008301d1000281d3003d
:102f50008180d3008301d1000281d3008180d3001e
:102f60008301d1000281d3008180d3000538b000f5
:102f7000c42add00f300b2008381720007f0a700cd
:102f800003f0a00000000600f3ff2700f2ff2f006f
:102f90006110b900fbff370003ff2700f7ff370080
:102fa0008f1fd100440207008f87e9000000e00076
:102fb000000006001400fa00889fbe008a9fbe0031
:102fc0008c9fbe000004be000205be0068004700e2
:102fd0000a90be000890be00600207000070a700c3
:102fe0000bf0a100304320009e029000808252002e
:102ff000b0fe2f000028e10011003d00b0fc2f00c2
:103000000028e100150034001e0990008e08900091
:103010007e0090000501b0000201d1008180d30044
:103020000080d3008502e800fbff3a000b00e000bf
:1030300085023b0060001000e0801800820237002b
:10304000f0ff2f00f1ff27000b00e0007e023b00a5
:1030500001002800000020007b0237006000b8005b
:10306000790237004f89de00820178007b02370049
:1030700007f0a200b0023700809feb000e020700ad
:103080008f87e9000000e000000006002800fa0039
:10309000889fbe008a9fbe008c9fbe0003866b0087
:1030a000550207000028a30064003a000128a3008d
:1030b00067003a000008a30062003a000108a3007c
:1030c00065003a001e009000be0890008106400096
:1030d000ed3fb100f4805700ee019000111ab800e6
:1030e0008e099000311bb8009e099000311cb80079
:1030f000511db800f485570046000700fe019000fe
:103100003a0007008b85e8003e0007008e0990001a
:1031100040000700ee019000340007008b85e800b6
:10312000380007008e099000400007009e099000bb
:103130001b18b800890440000a854800fe01900071
:10314000340007008b85e80038000700ee0190008e
:10315000300007008e0990001b18b8008904400059
:103160000a8548000a98a30008003a0004024200b9
:1031700085824a0006034b0087834b0008044c00fd
:1031800089844c000a054d008d06e9008482720096
:10319000850273004c3add008502720001003200a6
:1031a00015002000443ade001400b2004538de006d
:1031b000cb45dd000b007000c540de00cb4ddd00cf
:1031c0008b8070004549de00cb55dd000b0171009e
:1031d000c551de000d037800d402070003f0a10002
:1031e0000cf0a70003f0a000170237001b18b8006e
:1031f0008502400006834800e0834b0060044c00d9
:10320000070037001b18b8000603400087834800fa
:10321000faff37001b18b8008703400008844800f5
:10322000e0844c0060054d00000006001b18b8004b
:103230000804400089844800faff37000108a30011
:10324000fe013a005800be005801be00e3ff3700ff
:103250000008a300f9013a0009047800f9ff3700db
:103260002800fa00889fbe008a9fbe008c9fbe0087
:1032700003866b00e00107006400e10044003200b7
:103280006408e1004a0032006100e10046003200bb
:103290006108e10049003200ec0647006000b80018
:1032a0003d02be003d03be00f48657006011b80029
:1032b0003d04be003d05be007d0320000b0037002d
:1032c0000000a0008d06e900130032000402420055
:1032d00085824a0006034b0087834b0000004000b4
:1032e00081804800020149008381490008025200a0
:1032f00089825a000a035b008b835b00f0ff3b006e
:103300000802420089824a000a034b008b834b006b
:103310008d06e900edff3a00848272008682720019
:10332000f707b2008782720001003200150020000a
:103330001e0490003e0b900006035400e63fb000d0
:103340000368a300070032000000a7000500a000ea
:103350008301d1000281d3008180d3000080d3009b
:103360000603e8008301d1000281d3008180d300ed
:103370000080d3000002eb000482d2006b02070041
:1033800003f0a1000cf0a70003f0a000ae0137008d
:10339000640247006408e100a80132003400be0066
:1033a0003401be00f6ff37006108e100a3013200de
:1033b0006011b8006000b800f1ff370003ff27007c
:1033c00002002000fbff370073fe07000400be0070
:1033d00000000600881f7800000478005001be003d
:1033e0004000be00040040008580480006014900fe
:1033f00087814900009cbe000294be000400e100e9
:103400000588e1000690e1000798e1000200310024
:10341000680044001008e8004f047800000006002f
:10342000f4874700889fbe008a9fbe008c9fbe0025
:103430008e1f78000205be000004be00d4b79f00b6
:10344000e5b79f00f6b79f0087bf9f000000eb0025
:10345000c0b79f00b0b79f00a0b79f0090b79f0074
:1034600080b79f000d042000bfb097004fb09700b9
:10347000000140000000e0000f003d004f08de00aa
:1034800000007100c0b79f009e00070001003d00d2
:1034900012002000a100070001003d0012002000e2
:1034a000a6000700b1000700b60007000f004000ab
:1034b000c8ff0700220037004f08de000006710039
:1034c000ccb79f008f00070001003d0012002000d4
:1034d0009200070001003d00120020009700070045
:1034e000a20007000fb297009fb297002fb397007a
:1034f000bfb39700a90007000000520081805a0066
:1035000002015b0083815b0080b79f0091b79f0041
:10351000a2b79f00b3b79f000007eb009f00070012
:103520000020e10001a8e10002b0e10003b8e100e1
:10353000010031001e0020000e005600c0b79f00a1
:103540004fb297000400e000070035001000200093
:10355000010020006011b800080470008984700028
:103560000a0571008b8571008d06e900beff3a00e7
:103570000400e00003003d00820007000f0040004f
:1035800094ff07004fa897000000e00004003a00f5
:103590000fb497009fb497002fb59700bfb5970061
:1035a000940007004f0778004f06be004f05be008d
:1035b0004f04be004f01b10000000600881f7800d4
:1035c00018002000881f780095ff07008f87e9000a
:1035d0004f04780000000600801feb0090ff0700fa
:1035e0008f87e90000000600889fbe008a9fbe000a
:1035f0008c1f78006e00070007003d007300070075
:10360000e00f5b00e08f5b0007003d003200070029
:103610000006eb00040037003400070002003d0004
:103620002a0007001c00200072000700e3ff0700cb
:103630000203be000002be000c00e00001003200e8
:10364000220007000400be000601be004f067800fd
:103650004f05be004f04be0000000600889fbe005c
:103660008a9fbe008c1f78005100070005003d00b6
:1036700056000700e00f5b00e08f5b0006003d0096
:10368000040037001900070003003d006000b80087
:103690006011b8001000070056000700ceff0700b9
:1036a0000203be000002be000c00e0000100320078
:1036b000060007000400be000601be004f067800a9
:1036c0004f05be004f04be00000006006000b800b9
:1036d0006011b800000037000402500085825800d5
:1036e0000603590087835900000006000006eb001e
:1036f000e00f5200e08f5a00e00f5b00e08f5b00ac
:10370000000006000180400090b79f000001eb0020
:103710008fb097000100e00000000600020070007a
:1037200090b79f000180400080b79f000001eb0030
:10373000ffa897000100e0000000060002007000f2
:1037400080b79f00018040006faa9700cf20de0065
:1037500001007000f0af9f00040242002500070046
:103760004f18de000002720000000600e4af9f0068
:103770000804440089844c000a054d008b854d00e7
:10378000000006003fb29700cfb297005fb39700ea
:10379000efb3970000fe2f00000006003fb0970037
:1037a000cfb097005fb19700efb19700000006001f
:1037b0000205be000004be00e00f5000e08f58007c
:1037c000e00f5900e08f5900000006006000b800cb
:1037d0006011b80008045000898458000a05590097
:1037e0008b8559001c002000e00f5200e08f5a002a
:1037f000000006000800be000a01be00000006002e
:10380000889fbe008a9fbe008c1f78000205be0004
:103810000004be000006eb00e00f5000e08f5800ef
:10382000e00f5900e08f590007003d006000b8002c
:103830006011b80008045000898458000a05590036
:103840008b8559001c002000e00f5200e08f5a00c9
:10385000e00f5b00e08f5b0002003d000f000700ff
:103860000c00a2000800be000a01be005b010700b8
:103870000203be000002be000c00e00001003200a6
:10388000060007000400be000601be004f067800d7
:103890004f05be004f04be00000006006000b800e7
:1038a0006011b800040250008582580006035900d8
:1038b0008783590000000600889fbe008a9fbe00d3
:1038c0008c9fbe000404be000605be00809fbe00a3
:1038d000829fbe0063010700040678000800be0056
:1038e0000a01be005f010700840678004f03be0096
:1038f0004f02be008d4f76007fb09700130033005b
:10390000f0ff2f008b8f6b0006003b000d0666005a
:103910000c00a7000a00370007f0a60010002000e6
:103920000a003700880f5200898f5a008a0f5b0007
:103930008b8f5b00030039001000200001003e0067
:103940000000200007f0a7000000ea004f06be00bc
:103950004f05be004f04be00000006008000780046
:103960005002be005003be004439de00f700b20032
:10397000f37f200003016100090032000218e1001a
:1039800016003a0085017200830173008381730081
:103990000008200015003a00400020001300370006
:1039a00085017200830173008381730005003a0072
:1039b00004a8be0006a8be00100020000b003700bf
:1039c0000201e9000402420085824a0006034b001e
:1039d00087834b000748a300f9ff32000740a0008f
:1039e00004a8be0006a8be002000200080009800a9
:1039f0009200980000000600680447000294be0090
:103a00000094be00fc0447008694be008494be006f
:103a100009007800d1ff070008007800cfff0700f9
:103a200099007800814f70000b003b000800be0039
:103a30001e0107004f00b10003003700f3ff27000d
:103a4000f2ff2f006110b9004f06be004f05be0007
:103a50004f04be000080fa0000000600889fbe00f0
:103a6000830478000300e0002c00350003003c00d4
:103a700000827000040271002600320036432000ec
:103a8000c50020008383cf000a0039000541b10042
:103a90008283cf00070039000541b1008183cf0048
:103aa000040039000541b1008083cf0001003900d6
:103ab0000541b10085c353006022b80012003200f6
:103ac0000a003b0084827200610260008301d10021
:103ad0000281d3008180d3000080d3000603e80078
:103ae0008743e800f7ff3a00070037000000400076
:103af0008180480002014900838149000603e900f2
:103b00008743e900f9ff3a008800070009f0a700a1
:103b100003f0a0004f04be0000000600600010008b
:103b2000e080180060011900e0811900d3ff3b001c
:103b3000033e2c00f7ff37002800fa00889fbe00e4
:103b40008a9fbe008c9fbe000706780087866900aa
:103b50000c003b00030478008704780008f0a10003
:103b600009f0a100840f5000858f5800860f59007e
:103b7000890f5c00030033000cf0a20001003a0042
:103b80000cf0a1009cff07006400e1005f00320020
:103b9000780147006408e100610032006c014700d1
:103ba000748557003200be001201be003a04be0008
:103bb0001a05be001e039000be0a90008503530044
:103bc00006003d000004fd008104fd000205fd002b
:103bd0008305fd008703ea00050378000df8a300c4
:103be0000400320060041400e0841c0060051d0025
:103bf000e0851d006022b8007d0320000d38e10043
:103c00008006eb000b0039004433dd00f300b20006
:103c10008301730039003700848272000d0278003e
:103c2000e10664008b85d1000a85d3008984d30026
:103c30000884d3008703e900f7ff3b000800400039
:103c4000898048000a0149008b81490004003b003b
:103c500060001000e080180060011900e081190088
:103c60000358a300090032008d8272008482720022
:103c7000610260008301d1000281d3008180d30002
:103c80000080d3000603e8001b0037000348a300b0
:103c900017003a000600e000170034000603e900b0
:103ca0000d00a30000004800818048000201490087
:103cb000838149000348a3000f003a000600e0009a
:103cc000090034000603e90000004000818048003c
:103cd000020149008381490001003a000003eb0022
:103ce0000348a300f5ff32006022b800020037004d
:103cf00084827200618266000c00070003f0a1005c
:103d00000cf0a70003f0a0004fff3700640147004c
:103d10006408e10002003a000df8a30047ff3a00f2
:103d20003200be001201be0047ff3700180020001d
:103d300057002000080453000d003d00060020003d
:103d400097fc2f000740e1001e00340084827200bf
:103d5000610260008301d1000281d3008180d30021
:103d60000080d3000804e800f8ff3a004700200074
:103d70006104600005047400040464000d00320056
:103d800061004000e080480060014900e081490096
:103d900003b8a500070032000603e8006538e1001b
:103da00004003a008301d1000281d3008180d30056
:103db0000080d300f87f20000830e10003003500c8
:103dc000080378006000b8006011b8004433dd00db
:103dd000f300b2008301730000000600889fbe005c
:103de0008a9fbe008c9fbe000404b8000506b80080
:103df0008904460060854e000606b8000a054600a4
:103e0000e0854e000706b8008b054600040eb8009a
:103e1000890446000a854e00e0854d00050eb80075
:103e20000a0546008b854e00060eb8008b0546003d
:103e30000416b8000a0546008b854e000516b8002a
:103e40008b054600041eb8008b0546000800be0026
:103e50000a01be004f06be004f05be004f04be0063
:103e60000000060005ff2700058261000700320000
:103e70000428e100010032002400050006000700cc
:103e800001003a0044000500040805000200070094
:103e9000f9ff3a00140005006f8261008102700092
:103ea000850271008502720000000600e482400075
:103eb0001078a30007003200640240001178a300cc
:103ec0003400be001401be00040032000330a7001d
:103ed000000006003500be001501be000330a00042
:103ee000000006004400f800040f200024028800af
:103ef0000000e9001201c300008008000200000079
:103f000031027800b20278001201c0000000cd003a
:103f10004400f900000006004400f800040f2000ef
:103f200024028800010278000000e90000800800f7
:103f300004000000b20278000500ca00b302780055
:103f40000500c9003100cc00040078004400f900ed
:103f5000000006004400f800040f2000240288003e
:103f6000811f78000000e9000080080003000000c5
:103f700032027800b30278001301c0003100cd0096
:103f80004f0078004400f90000000600889fbe0042
:103f90008a9fbe008c9fbe004400f8000d0f2000d9
:103fa0002d028800830678000106e9008205e900f9
:103fb00081804000020141000000e900100035004e
:103fc000050578000b8008000a0000000404780052
:103fd0008a0478001201c3000c800800030000006e
:103fe00038037800990378001201c60082844400e7
:103ff0003300cd000a85e80001024200eeff3700e1
:104000000d0078004400f9004f06be004f05be00c9
:104010004f04be00000006000100b8000000e900e7
:104020004400f800010f200021028800820078007f
:104030000080080004000000b30278000500ca00f8
:10404000b40278000500c9003200cc0001007800fd
:104050004400f900000006004400f800040f2000ae
:1040600024028800811f78000000e9000302780024
:104070000080080002000000b20278001301c000b6
:104080003100cd004f0078004400f9000000060028
:104090004400f800020f2000220288000000e9001e
:1040a0001201c30000800800010000003102780006
:1040b0001001f0000000cd004400f90000000600ef
:1040c000810178000000e90000800900b218780042
:1040d00003007800000006004400f800040f2000f0
:1040e00024028800010278000000e9000080080036
:1040f00005000000b20278000500ca00b302780093
:104100000580ca000030cb003100cc0004007800ec
:084110004400f9000000060064
:020000040000fa
:0200000401f009
:04000800ffff0000f6
:020000040000fa
:0200000401f009
:04000c00f9ff0000f8
:020000040000fa
:0200000401f009
:040010007bff000072
:020000040000fa
:0200000401f009
:040014007fff00006a
:020000040000fa
:0200000401f009
:04001800f8ff0000ed
:020000040000fa
:0200000401f009
:04001c00deff000003
:020000040000fa
:100008004a690000406900003c6900003869000046
:1000180034690000466900004a6900004a69000026
:100028004a690000803500004a690000a05e0000af
:1000380052470000b83500004a6900004a690000cc
:100048004a6900004a6900004a69000044510000fa
:100058000e5100004a6900004a6900004a69000020
:100068004a6900004a6900004a6900004a690000bc
:100078004a6900004a690000f0360000283700008d
:100088004a6900004a6900004a690000fc550000fe
:10009800445f00004a6900006a52000034520000c0
:1000a8004a6900004a6900004a6900004a6900007c
:1000b8004a690000f035000048360000803600002c
:1000c800b83600004a6900004a6900004a69000021
:1000d8004a6900004a6900004a690000625f00003e
:1000e8000a5f00004a690000063900004a690000fa
:1000f8004a6900004a6900004a6900004a6900002c
:100108004a6900004a6900004a6900004a6900001b
:100118004a6900004a6900004a6900004a6900000b
:100128004a6900004a6900004a6900004a690000fb
:100138004a6900004a6900004a6900004a690000eb
:100148004a6900004a6900004a6900004a690000db
:100158004a6900004a6900004a6900004a690000cb
:100168004a6900004a6900004a6900004a690000bb
:100178004a6900004a6900004a6900004a690000ab
:100188004a6900004a6900004a6900004a6900009b
:100198004a6900004a6900004a6900004a6900008b
:1001a8004a6900004a6900004a6900004a6900007b
:1001b8004a6900004a6900004a6900004a6900006b
:1001c8004a6900004a6900004a6900004a6900005b
:1001d8004a6900004a6900004a6900004a6900004b
:1001e8004a6900004a6900004a6900004a6900003b
:0801f8004a6900004a69000099
:020000040000fa
:100208004a690000406900003c6900003869000044
:1002180034690000466900004a6900004a69000024
:100228004a690000803500004a690000a05e0000ad
:1002380052470000b83500004a6900004a690000ca
:100248004a6900004a6900004a69000044510000f8
:100258000e5100004a6900004a6900004a6900001e
:100268004a6900004a6900004a6900004a690000ba
:100278004a6900004a690000f0360000283700008b
:100288004a6900004a6900004a690000fc550000fc
:10029800445f00004a6900006a52000034520000be
:1002a8004a6900004a6900004a6900004a6900007a
:1002b8004a690000f035000048360000803600002a
:1002c800b83600004a6900004a6900004a6900001f
:1002d8004a6900004a6900004a690000625f00003c
:1002e8000a5f00004a690000063900004a690000f8
:1002f8004a6900004a6900004a6900004a6900002a
:100308004a6900004a6900004a6900004a69000019
:100318004a6900004a6900004a6900004a69000009
:100328004a6900004a6900004a6900004a690000f9
:100338004a6900004a6900004a6900004a690000e9
:100348004a6900004a6900004a6900004a690000d9
:100358004a6900004a6900004a6900004a690000c9
:100368004a6900004a6900004a6900004a690000b9
:100378004a6900004a6900004a6900004a690000a9
:100388004a6900004a6900004a6900004a69000099
:100398004a6900004a6900004a6900004a69000089
:1003a8004a6900004a6900004a6900004a69000079
:1003b8004a6900004a6900004a6900004a69000069
:1003c8004a6900004a6900004a6900004a69000059
:1003d8004a6900004a6900004a6900004a69000049
:1003e8004a6900004a6900004a6900004a69000039
:0803f8004a6900004a69000097
:020000040000fa
:1041180024500000535200004631000030300000a7
:104128002c3000002c310000393200003030000003
:104138002c3800002c3100002c3000002a330000fd
:10414800390d00000a000000090000008600000088
:10415800004b000000080000010000000000000003
:10416800e90a0000e80a0000eb0a0000ea0a000079
:10417800f30a0000f20a0000e70a0000e60a00005d
:10418800e50a0000e40a0000d60a0000d60a00008a
:10419800d60a0000d60a0000d60a0000d60a000097
:1041a800d60a0000d60a0000d60a0000d60a000087
:1041b800d60a0000d60a0000db0a0000da0a00006e
:1041c800d90a0000d80a0000df0a0000de0a000051
:1041d800dd0a0000dc0a0000d60a0000d60a00004a
:1041e800d60a0000d60a0000e30a0000e20a00002e
:1041f800e10a0000e00a0000d60a0000ed0a00000b
:10420800ec0a0000ef0a0000ee0a0000d60a0000df
:10421800d60a0000f10a0000f00a0000d60a0000e1
:10422800d60a0000d60a0000d60a0000d60a000006
:10423800d60a0000d60a0000d60a0000d60a0000f6
:10424800d60a0000d60a0000d60a0000d60a0000e6
:10425800d60a0000d60a0000d60a0000d60a0000d6
:10426800d60a0000d60a0000d60a0000d60a0000c6
:10427800d60a0000d60a0000d60a0000d60a0000b6
:10428800d60a0000d60a0000d60a0000d60a0000a6
:10429800d60a0000d60a0000d60a0000d60a000096
:1042a800d60a0000d60a0000d60a0000d60a000086
:1042b800d60a0000d60a0000d60a0000d70a000075
:1042c800f40a0000d60a0000d60a0000d60a000048
:1042d800000000009201000024030000b504000063
:1042e80046060000d607000064090000f10a000035
:1042f8007c0c0000060e00008d0f0000121100005b
:104308009412000013140000901500000917000013
:104318007e180000ef1900005d1b0000c61c00009d
:104328002b1e00008c1f0000e72000003d2200002b
:104338008e230000da2400002026000060270000f9
:104348009a280000ce290000fb2a0000212c00003a
:10435800412d00005a2e00006c2f0000763000001e
:1043680079310000743200006833000053340000d3
:104378003735000012360000e5360000b03700007f
:10438800713800002b390000db390000823a000048
:10439800213b0000b63b0000423c0000c53c000049
:1043a8003f3d0000af3d0000153e0000723e00009a
:1043b800c53e00000f3f00004f3f0000853f000052
:1043c800b13f0000d43f0000ec3f0000fb3f00007d
:1043d8000040000000000000000000000000000095
:1043e800000000004b00000000000000000000007a
:1043f80000000000000000000000000000000000b5
:1044080000000000000000000000000000000000a4
:1044180032000000c00000000000000000000000a2
:10442800000000000000000000000000030200007f
:10443800010000000706000005040000090800004c
:104448000b0a00000f0e00000d0c000013120000f4
:1044580011100000151400009a1d00000908000042
:1044680099050000200300003e000000dd03000065
:1044780011fb0000a8020000dbfc00003c0000006b
:1044880010200000003c0000001100002001000086
:104498003c0000001020000002000000660600003a
:1044a800ac0c0000cc0c0000334f0000cc0c00001a
:1044b80033030000d70f0000cc0c0000d70f00001a
:1044c800d70f0000d70f0000d70f0000d703000058
:1044d800cc0c0000334f000008000000040000006e
:0c44e8000800000066060000330300001e
:020000040000fa
:1044f4000000fa000040eb006c04070050538800f1
:104504000040eb00e5030700605388000080fa00d8
:10451400000006000a00fa002007980031079800fe
:10452400420798004e00900064004000900078001c
:104534003e0090000080e800100078000180b9007f
:10454400008fbe001e01be004e0090000080e800f7
:10455400900078003e009000640040001000780055
:104564000180b9000000510081805900008fbe0015
:104574001e00be004209dd00ce00de008100710095
:104584004200dd00008fbe009e0090002e009000cf
:10459400010878004e009000900078003e009000e2
:1045a40064004000100078000180b900008fbe0054
:1045b4001e01be004e009000640040009000780090
:1045c4003e009000100078000180b9000000510006
:1045d40081805900008fbe001e00be004209dd002c
:1045e400ce00de00810071004200dd00008fbe00bd
:1045f4002e0090008080e8001e0090008008780063
:104604004e0090000080e800900078003e0090008a
:10461400100078000180b900008fbe001e01be00aa
:104624004e009000900078003e0090000080e8006a
:10463400100078000180b900000051008180590009
:10464400008fbe001e00be004209dd00ce00de0069
:10465400810071004200dd00008fbe002e0090003a
:10466400e40040001e009000800878000080fa00fa
:10467400000006000200fa00904d80008080d10006
:10468400804d80000080d10080805000704c8000fc
:1046940000805000b0498800e04d80008080d10047
:1046a400d04d80000080d10080805000704c80008c
:1046b40000805000c0498800304e80008080d100c6
:1046c400204e80000080d10080805000704c80001b
:1046d40000805000d0498800d2498000c149800040
:1046e400b049800096050700504888005048800073
:1046f4000000d100000f78001e00e000240032000a
:104704001e017800b0498000cf80de00cd09dd00b5
:10471400c300de00818071004d00dd00811f780040
:10472400110009004208d800cf00780060488800d2
:104734001e017800c0498000cf80de00cd09dd0075
:10474400c300de00818071004d00dd00811f780010
:10475400110009004208d800cf0078007048880092
:104764001e017800d0498000cf80de00cd09dd0035
:10477400c300de00818071004d00dd00811f7800e0
:10478400110009004208d800cf0078008048880052
:104794000080fa00000006000000fa00a04c80002f
:1047a4008080d100904c80000080d10000805000b7
:1047b400304b8800f04c80008080d100e04c8000b9
:1047c4000080d10000805000404b8800304d8000b4
:1047d4008080d100404d80000080d10000805000d6
:1047e400504b880062962000219120003000200068
:1047f400bbfd070000004000704a88008191200042
:104804006296200030002000b5fd07000000ea0099
:1048140000004000804a8800e19120006296200058
:1048240030002000aefd070000004000800078004a
:1048340010832f0000804000904a88000080fa0016
:10484400000006000a00fa002007980031079800cb
:104854003e0090004300de0030079800ae00900058
:104864003e0090000008b900008fbe001e009000ba
:10487400f10f5000030034000000240040079800aa
:10488400180037001e009000f10f400003003d00a7
:1048940002002c0042079800120037001e00be00e0
:1048a4004b09dd004500de0000007100c588de0014
:1048b400008fbe009e007800303a20000008b90046
:1048c400008fbe001e00be004509dd00cb00de00e7
:1048d400810071004500dd00008fbe001e009000c5
:1048e400400798004e0090000080fa000000060087
:1048f4000000fa00881f7800384b8000e1528000e5
:10490400204b8000cfff070000005400304b88008c
:10491400584b8000e1528000004b8000c9ff070023
:1049240000004400504b8800404b80008000780019
:10493400b05280000000400000804000404b8800de
:104944004f0478000080fa00000006003000fa00ee
:104954008394200062932000019620003000200000
:104964006cfd07002394200002962000c1932000d0
:104974003000200067fd0700f80047004390200046
:10498400c29320003000200071fd0700e6004700bc
:10499400000024008008980066004700800890000a
:1049a400660047004100980066004700c000900080
:1049b40066004700010878007800470090007800fe
:1049c40078004700100078000181b90078004700a2
:1049d4009000900078004700100090000180b9001a
:1049e400020140008381480078004700a000900045
:1049f40078004700200090000180b90002004000c8
:104a04008380480010079800210798001e0090003a
:104a1400ae0090004209dd004e00de00000071008f
:104a2400ce08de0032002000110009000280d80008
:104a34008000780000002400008f400078004700c8
:104a4400100078001e00b9004209dd004e00de00af
:104a540000007100ce88de008000780078004700f6
:104a64000108780078004700100090001e00b9008b
:104a74004209dd004e00de0000007100ce88de0039
:104a84008000780078004700110098007800470003
:104a9400200090001e00b9004209dd004e00de0037
:104aa40000007100ce88de008000780078004700a6
:104ab4002100980078004700200090008000ea0060
:104ac40066004700110098007800470090009000ad
:104ad400660047002100980078004700a00090007d
:104ae4006600470031009800780047001000780005
:104af4008000ea00660047005100980078004700f3
:104b0400100090008000ea006600470061009800f1
:104b14007800470090007800660047007100980014
:104b240066004700fe0047008002780024912000c0
:104b34008101780032002000310020003000200084
:104b440011fd07007e004700fe00470000027800c8
:104b540081017800229120003100200030002000e3
:104b64002cfd07000080fa00000006001600fa0081
:104b7400829120002191200030002000d8fc070001
:104b84000000ea00504c8800504c800082912000c4
:104b9400e400470080017800300020002dfd07006c
:104ba400514c800064004700660040008101780099
:104bb40022912000800078003000200025fd0700ad
:104bc40064014700e40047002391200030002000e6
:104bd400d0fc070082912000640047006602400078
:104be40064004700e6004000820178000401780078
:104bf40030002000c7fc0700640047006601400045
:104c0400640047006c004000e400470041fe0700d8
:104c1400e4004700300020001cfd07001007980046
:104c2400010026001e009000008f50006401470020
:104c3400e40047009e0178003000200005fd0700d5
:104c4400640047006401470080017800219120003e
:104c540030002000affc070064004700e60040007d
:104c64003000200009fd070010079800010026000d
:104c74001e009000008f5000640047006601400051
:104c840064004700e60040009e01780030002000e8
:104c9400f0fc070064004700e601400064004700a0
:104ca40066014000819120003000200099fc07003b
:104cb40064004700ec00400030002000f3fc0700d3
:104cc40010079800010026001e009000008f50007d
:104cd400640047006c01400064004700ec004000a1
:104ce4009e01780030002000dafc070064004700d1
:104cf400ec014000640047006c014000e191200099
:104d04003000200083fc07000080fa000000060049
:104d14000000fa00e29120006196200080972000b4
:104d2400fcfd07000080fa00000006000000fa0005
:104d3400005e800001402000010060000000e000ef
:104d4400170032008152800060092000808f5000db
:104d54000c003600c296200021972000e097200026
:104d6400ecfd070025912000e497200043982000e3
:104d740032002000310020001000200082fc0700d7
:104d8400060037000000eb00404c8800404c8000d7
:104d9400304c8800304c8000204c8800c14ba90066
:104da4000080fa00000006000a00fa006058800043
:104db400300798007058800040079800660047004c
:104dc400760207008040780000ccb30000c04000a9
:104dd400404798004e4090003402070010079800a6
:104de4004e409000ad010700000f78001e009000b7
:104df400d0488800d0488000904888001e00780081
:104e0400a04888001e00ea00c04888000080fa001c
:104e1400000006001200fa00604c80000000e90067
:104e2400604c8800604c80000000e00006003a00fe
:104e34002291200041922000900020009ffc070056
:104e4400a0002000604c8800005e8000012020004b
:104e5400010060000000e000a1003200005e80005c
:104e640001102000010060000000e0000500320095
:104e7400cdff0700229120004192200090002000e5
:104e84008efc070070002000604c8800c2b0200037
:104e9400419220003000200011fc07000000400077
:104ea40020538800a1922000c2b0200030002000ce
:104eb4000bfc0700000040003053880001932000e1
:104ec400c2b020003000200005fc070000004000b4
:104ed40040538800a2a6200041a620002000200004
:104ee400fffb070080007800400620000088b9001e
:104ef40020079800e2912000ae0190004198200024
:104f04003000200053fc0700ec00470043a72000ba
:104f1400c2b0200030002000fefb07000000eb00c0
:104f2400100798000c0037009e0190001e009000ae
:104f3400ec00470000004000608078000081d10050
:104f4400ec0047000380410002b078001e0090008e
:104f54000000e800100798001e009000e20f5000c7
:104f6400f1ff34006600470045922000e4a62000cb
:104f74008001780032002000310020001000200061
:104f840001fc0700660047006c014700ec00470085
:104f940080017800300020004efc070066004700c6
:104fa400a5a7200044a6200080017800320020003c
:104fb4003100200010002000f3fb070066004700ca
:104fc4006c014700ec0047008001780030002000ad
:104fd40040fc07000000eb001007980014003700a5
:104fe4001e009000ec00470000004000608f780035
:104ff40090ff2f009e0f10000a0035007000200063
:105004009e0f100007003c001e0090006c0147003a
:10501400800040000000eb00803079000000eb00cd
:10502400000f78001e0090000000e80010079800b0
:105034001e009000e20f5000e9ff3400005e800083
:1050440001102000010060000000e00016003a009a
:10505400615480006c004700100078000080e80074
:105064004380de000080400060548800715480005a
:105074006c004700100090000080e8004380de00d0
:105084000080400070548800815480006c00470008
:10509400200090000080e8004380de000080400093
:1050a4008054880001003700c10ba90042a62000eb
:1050b400e1a620003000200000fc0700c2b0200060
:1050c40041a7200030002000fcfb07004292200092
:1050d400a1a7200090002000f8fb0700c12ba90025
:1050e4000080fa00000006000a00fa00514880001f
:1050f400c03d2000808f500005003e00004020008d
:105104001007980000a02000000f7800110037005d
:1051140051488000906a2200808f500009003e00b0
:10512400504880004300de004300dd001007980073
:10513400504880004300de007400b900000f78007e
:105144000400370000802200100798000040260069
:10515400000f78009e0190004298200021942000c6
:1051640030002000bbfb0700e40047009e017800ec
:105174008297200030002000b6fb0700640047003f
:105184008001780022942000219420003000200027
:1051940060fb070051488000a0182000808f500059
:1051a4004e003e00a24a8000b34a8000c14b8000fa
:1051b400002020000088b9004d0add004300de0015
:1051c40000007200c388de000200400083804800b3
:1051d400a04a8800b14a8800c24a8000d34a8000ad
:1051e400d14b8000002020000088b9004d0add006a
:1051f4004300de0000007200c388de0002004000ad
:1052040083804800c04a8800d14a8800e24a80006e
:10521400f34a8000e14b8000002020000088b900a0
:105224004d0add004300de0000007200c388de008a
:105234000200400083804800e04a8800f14a880068
:10524400a24a8000b34a8000214c80000002200062
:105254000088b9004d0add004300de000000720042
:10526400c388de000200400083804800a04a880012
:10527400b14a8800c24a8000d34a8000314c800081
:10528400000220000088b9004d0add004300de0062
:1052940000007200c388de000200400083804800e2
:1052a400c04a8800d14a8800e24a8000f34a80005c
:1052b400414c8000000220000088b9004d0add0046
:1052c4004300de0000007200c388de0002004000dc
:1052d40083804800e04a8800f14a8800b04a800090
:1052e4004380de00404a8800d04a80004380de00cc
:1052f400504a8800f04a80004380de00604a8800fb
:105304000080fa00000006000600fa00100798006a
:10531400210798002e0090009e009000008f40000e
:10532400504423009e0f1000020036005044230016
:10533400000f780030ac22009e0f100002003e00e7
:1053440040ac2200000f78001e0078000080fa00b4
:10535400000006000e00fa0051488000d03d2000f5
:10536400808f50003b003600504880000000d10080
:10537400000f7800e800470023942000c29020002a
:1053840030002000f2fa070068004700100078009f
:105394007e00b90020079800310798001e017800ac
:1053a4002e009000be009000811f780011000900bb
:1053b4004208d800cf0078001007980020488000e9
:1053c4009e009000d0ff0700204888006800470036
:1053d400100090007e00b900200798003107980063
:1053e4001e0178002e009000be009000811f7800fe
:1053f400110009004208d800cf0078001007980077
:10540400304880009e009000bfff070030488800ad
:1054140068004700200090007e00b9002007980033
:10542400310798001e0178002e009000be00900005
:10543400811f7800110009004208d800cf007800cd
:1054440010079800404880009e009000aeff0700bf
:10545400404888000080fa00000006000000fa00be
:10546400460f070022fd070038fd0700bffd0700b7
:1054740027fe070020558000e70f500002003a0085
:1054840064fe07000100370028fe070016ff07002e
:10549400b0ff07000080fa00000006000600fa00d2
:1054a400204798002e4090000000fb00000f780079
:1054b4001e00e00012003500000420009e0f1000c2
:1054c40008003400000820001e0050008000400046
:1054d400c0162a00008040001000780020079800c1
:1054e4001b0037001e00780080004000c0162a0010
:1054f4000080400010007800200798001400370056
:105504001e0fea00000420009e0f10000900340062
:10551400000820001e00500080004000c0162a0031
:1055240000804000100078000000ea002007980086
:10553400070037001e00780080004000c0162a00d3
:1055440000804000100078000000ea002007980066
:105554002e0090000080fa00000006000800fa0007
:10556400881f78002007980000c2b30030479800d5
:1055740000c4b3002047980000c2b300104798004d
:105584002e0090000000e0000300340010c0b300bf
:10559400004f78000500370000c0eb00004f780092
:1055a4002e0090000000ea0020079800ae00900052
:1055b40000002400808f50002d003a001e00fb00e4
:1055c4004600dd000000fb00300798003300370080
:1055d4002e4090000000fb000080d100304798006e
:1055e4003e409000adff0700800078002e00900040
:1055f400808f500006003a009e4078003e409000a4
:105604000088b9000000fb00300798002300370031
:105614003e409000a1ff0700000478003e40900047
:105624000040e9009dff0700000044008080d10095
:105634002e009000808f500005003d002e40900009
:105644009e4090000140400020479800040037002d
:105654002e4090009e40900001405000204798004a
:105664001e4090000000fb000080d100104798000d
:105674001e4090000004e000d5ff3c002e40900046
:105684000000fb000080d100804078001e407800bc
:105694000088b9000000fb00300798003e0090002d
:1056a4004f0478000080fa00000006000200fa00af
:1056b400004f780001c4b3001ec0400077ff07000c
:1056c4000080fa00000006001000fa00600798004d
:1056d400614f98006e48900070ff07002007980003
:1056e4006e489000f1ff0700300798006e009000ac
:1056f400900078003e0090000181b9006e00900097
:10570400900090002e0090000180b900000051002c
:10571400818059004209dd00ce00de008100710065
:105724004200dd0040079800510798005e00900099
:10573400100798006e009000900078002e009000f2
:105744000181b9006e009000900090003e0090002e
:105754000180b90002004000838048004209dd0056
:10576400ce00de00810071004200dd004007980099
:10577400510798005e009000000f78006e009000c2
:105784009e009000010878006e0090001e017800d1
:10579400120098000080fa00000006000800fa00d9
:1057a400300798000040eb005047980000c4b30055
:1057b4004047980070c0b300204798003e00900016
:1057c40090007800e00f2000808f50001c003c0007
:1057d4003e0090009000780010f02f00808f500061
:1057e400170034003e00900090009000e00f20006d
:1057f400808f500012003c003e009000900090000a
:1058040010f02f00808f50000d0034006000200045
:10581400000f78003e00900010007800c600dd0004
:105824003e009000010878003e00900010009000b7
:10583400c600dd003e009000110098001a003700f9
:105844000000eb00000f7800170037004e40900076
:10585400304798003e009000100090000000e000e7
:10586400030034003e4090000040ea0030479800b6
:10587400be4090003e00900093ff0700de40900081
:105884003e40900000c04000504798004e409000b9
:105894000000fb000080d100404798002e4090009b
:1058a4000040e900204798002e4090000004e000ea
:1058b400e6ff3c003e009000100090000000e00075
:1058c400030034005e4090000040e9005047980017
:1058d4003e009000900078001e0078008088de0072
:1058e4003e009000010878003e0090009000900077
:1058f4001e0078008088de003e00900011009800b1
:105904005e4090000040ea000000fb000080fa00c6
:10591400000006000a00fa00400798000040eb006f
:105924003047980000c4b3002047980070c0b3000b
:10593400004f78004e00900090007800e00f2000a7
:10594400808f50001c003c004e00900090007800b6
:1059540010f02f00808f5000170034004e0090008c
:1059640090009000e00f2000808f500012003c0057
:105974004e0090009000900010f02f00808f500097
:105984000d00340060002000300798004e009000a5
:1059940010007800c600dd004e0090000108780079
:1059a4004e00900010009000c600dd004e009000f4
:1059b40011009800180037000000eb003007980031
:1059c400150037002e409000104798004e009000bc
:1059d400100090000000e000030034001e4090001e
:1059e4000040ea00104798009e4090004e0090004e
:1059f40035ff0700be4090001e40900000c04000ec
:105a0400304798002e4090000000fb000080d10039
:105a1400204798001e4fe9001e04e000e9ff3c0007
:105a24003e4090000040ea00304798003e4090001d
:105a34000000fb004800dd00200798004e009000a5
